###############################################################################
#                                                                             #
# IAR ELF Linker V6.60.2.5449/W32 for ARM               19/Mar/2015  04:11:05 #
# Copyright 2007-2013 IAR Systems AB.                                         #
#                                                                             #
#    Output file  =  C:\RTOS_Project\src\skynet\cpe484_es6153\Micrium\Softwar #
#                    e\EvalBoards\TI\LM3S9B92-EVALBOT\IAR\uCOS-III-CE4053_PG\ #
#                    Flash\Exe\uCOS-III-Ex4.out                               #
#    Map file     =  C:\RTOS_Project\src\skynet\cpe484_es6153\Micrium\Softwar #
#                    e\EvalBoards\TI\LM3S9B92-EVALBOT\IAR\uCOS-III-CE4053_PG\ #
#                    Flash\List\uCOS-III-Ex4.map                              #
#    Command line =  C:\RTOS_Project\src\skynet\cpe484_es6153\Micrium\Softwar #
#                    e\EvalBoards\TI\LM3S9B92-EVALBOT\IAR\uCOS-III-CE4053_PG\ #
#                    Flash\Obj\adc.o C:\RTOS_Project\src\skynet\cpe484_es6153 #
#                    \Micrium\Software\EvalBoards\TI\LM3S9B92-EVALBOT\IAR\uCO #
#                    S-III-CE4053_PG\Flash\Obj\app.o                          #
#                    C:\RTOS_Project\src\skynet\cpe484_es6153\Micrium\Softwar #
#                    e\EvalBoards\TI\LM3S9B92-EVALBOT\IAR\uCOS-III-CE4053_PG\ #
#                    Flash\Obj\app_vect.o C:\RTOS_Project\src\skynet\cpe484_e #
#                    s6153\Micrium\Software\EvalBoards\TI\LM3S9B92-EVALBOT\IA #
#                    R\uCOS-III-CE4053_PG\Flash\Obj\bsp.o                     #
#                    C:\RTOS_Project\src\skynet\cpe484_es6153\Micrium\Softwar #
#                    e\EvalBoards\TI\LM3S9B92-EVALBOT\IAR\uCOS-III-CE4053_PG\ #
#                    Flash\Obj\bsp_dac.o C:\RTOS_Project\src\skynet\cpe484_es #
#                    6153\Micrium\Software\EvalBoards\TI\LM3S9B92-EVALBOT\IAR #
#                    \uCOS-III-CE4053_PG\Flash\Obj\bsp_display.o              #
#                    C:\RTOS_Project\src\skynet\cpe484_es6153\Micrium\Softwar #
#                    e\EvalBoards\TI\LM3S9B92-EVALBOT\IAR\uCOS-III-CE4053_PG\ #
#                    Flash\Obj\bsp_int.o C:\RTOS_Project\src\skynet\cpe484_es #
#                    6153\Micrium\Software\EvalBoards\TI\LM3S9B92-EVALBOT\IAR #
#                    \uCOS-III-CE4053_PG\Flash\Obj\bsp_io.o                   #
#                    C:\RTOS_Project\src\skynet\cpe484_es6153\Micrium\Softwar #
#                    e\EvalBoards\TI\LM3S9B92-EVALBOT\IAR\uCOS-III-CE4053_PG\ #
#                    Flash\Obj\bsp_motor.o C:\RTOS_Project\src\skynet\cpe484_ #
#                    es6153\Micrium\Software\EvalBoards\TI\LM3S9B92-EVALBOT\I #
#                    AR\uCOS-III-CE4053_PG\Flash\Obj\bsp_sensors.o            #
#                    C:\RTOS_Project\src\skynet\cpe484_es6153\Micrium\Softwar #
#                    e\EvalBoards\TI\LM3S9B92-EVALBOT\IAR\uCOS-III-CE4053_PG\ #
#                    Flash\Obj\can.o C:\RTOS_Project\src\skynet\cpe484_es6153 #
#                    \Micrium\Software\EvalBoards\TI\LM3S9B92-EVALBOT\IAR\uCO #
#                    S-III-CE4053_PG\Flash\Obj\comp.o                         #
#                    C:\RTOS_Project\src\skynet\cpe484_es6153\Micrium\Softwar #
#                    e\EvalBoards\TI\LM3S9B92-EVALBOT\IAR\uCOS-III-CE4053_PG\ #
#                    Flash\Obj\cpu_.o C:\RTOS_Project\src\skynet\cpe484_es615 #
#                    3\Micrium\Software\EvalBoards\TI\LM3S9B92-EVALBOT\IAR\uC #
#                    OS-III-CE4053_PG\Flash\Obj\cpu_a.o                       #
#                    C:\RTOS_Project\src\skynet\cpe484_es6153\Micrium\Softwar #
#                    e\EvalBoards\TI\LM3S9B92-EVALBOT\IAR\uCOS-III-CE4053_PG\ #
#                    Flash\Obj\cpu_bsp.o C:\RTOS_Project\src\skynet\cpe484_es #
#                    6153\Micrium\Software\EvalBoards\TI\LM3S9B92-EVALBOT\IAR #
#                    \uCOS-III-CE4053_PG\Flash\Obj\cpu_c.o                    #
#                    C:\RTOS_Project\src\skynet\cpe484_es6153\Micrium\Softwar #
#                    e\EvalBoards\TI\LM3S9B92-EVALBOT\IAR\uCOS-III-CE4053_PG\ #
#                    Flash\Obj\cpu_core.o C:\RTOS_Project\src\skynet\cpe484_e #
#                    s6153\Micrium\Software\EvalBoards\TI\LM3S9B92-EVALBOT\IA #
#                    R\uCOS-III-CE4053_PG\Flash\Obj\epi.o                     #
#                    C:\RTOS_Project\src\skynet\cpe484_es6153\Micrium\Softwar #
#                    e\EvalBoards\TI\LM3S9B92-EVALBOT\IAR\uCOS-III-CE4053_PG\ #
#                    Flash\Obj\ethernet.o C:\RTOS_Project\src\skynet\cpe484_e #
#                    s6153\Micrium\Software\EvalBoards\TI\LM3S9B92-EVALBOT\IA #
#                    R\uCOS-III-CE4053_PG\Flash\Obj\fatfs.o                   #
#                    C:\RTOS_Project\src\skynet\cpe484_es6153\Micrium\Softwar #
#                    e\EvalBoards\TI\LM3S9B92-EVALBOT\IAR\uCOS-III-CE4053_PG\ #
#                    Flash\Obj\flash.o C:\RTOS_Project\src\skynet\cpe484_es61 #
#                    53\Micrium\Software\EvalBoards\TI\LM3S9B92-EVALBOT\IAR\u #
#                    COS-III-CE4053_PG\Flash\Obj\gpio.o                       #
#                    C:\RTOS_Project\src\skynet\cpe484_es6153\Micrium\Softwar #
#                    e\EvalBoards\TI\LM3S9B92-EVALBOT\IAR\uCOS-III-CE4053_PG\ #
#                    Flash\Obj\hibernate.o C:\RTOS_Project\src\skynet\cpe484_ #
#                    es6153\Micrium\Software\EvalBoards\TI\LM3S9B92-EVALBOT\I #
#                    AR\uCOS-III-CE4053_PG\Flash\Obj\i2c.o                    #
#                    C:\RTOS_Project\src\skynet\cpe484_es6153\Micrium\Softwar #
#                    e\EvalBoards\TI\LM3S9B92-EVALBOT\IAR\uCOS-III-CE4053_PG\ #
#                    Flash\Obj\i2s.o C:\RTOS_Project\src\skynet\cpe484_es6153 #
#                    \Micrium\Software\EvalBoards\TI\LM3S9B92-EVALBOT\IAR\uCO #
#                    S-III-CE4053_PG\Flash\Obj\interrupt.o                    #
#                    C:\RTOS_Project\src\skynet\cpe484_es6153\Micrium\Softwar #
#                    e\EvalBoards\TI\LM3S9B92-EVALBOT\IAR\uCOS-III-CE4053_PG\ #
#                    Flash\Obj\lib_ascii.o C:\RTOS_Project\src\skynet\cpe484_ #
#                    es6153\Micrium\Software\EvalBoards\TI\LM3S9B92-EVALBOT\I #
#                    AR\uCOS-III-CE4053_PG\Flash\Obj\lib_math.o               #
#                    C:\RTOS_Project\src\skynet\cpe484_es6153\Micrium\Softwar #
#                    e\EvalBoards\TI\LM3S9B92-EVALBOT\IAR\uCOS-III-CE4053_PG\ #
#                    Flash\Obj\lib_mem.o C:\RTOS_Project\src\skynet\cpe484_es #
#                    6153\Micrium\Software\EvalBoards\TI\LM3S9B92-EVALBOT\IAR #
#                    \uCOS-III-CE4053_PG\Flash\Obj\lib_str.o                  #
#                    C:\RTOS_Project\src\skynet\cpe484_es6153\Micrium\Softwar #
#                    e\EvalBoards\TI\LM3S9B92-EVALBOT\IAR\uCOS-III-CE4053_PG\ #
#                    Flash\Obj\microsd.o C:\RTOS_Project\src\skynet\cpe484_es #
#                    6153\Micrium\Software\EvalBoards\TI\LM3S9B92-EVALBOT\IAR #
#                    \uCOS-III-CE4053_PG\Flash\Obj\mpu.o                      #
#                    C:\RTOS_Project\src\skynet\cpe484_es6153\Micrium\Softwar #
#                    e\EvalBoards\TI\LM3S9B92-EVALBOT\IAR\uCOS-III-CE4053_PG\ #
#                    Flash\Obj\os_app_hooks.o C:\RTOS_Project\src\skynet\cpe4 #
#                    84_es6153\Micrium\Software\EvalBoards\TI\LM3S9B92-EVALBO #
#                    T\IAR\uCOS-III-CE4053_PG\Flash\Obj\os_cfg_app.o          #
#                    C:\RTOS_Project\src\skynet\cpe484_es6153\Micrium\Softwar #
#                    e\EvalBoards\TI\LM3S9B92-EVALBOT\IAR\uCOS-III-CE4053_PG\ #
#                    Flash\Obj\os_core.o C:\RTOS_Project\src\skynet\cpe484_es #
#                    6153\Micrium\Software\EvalBoards\TI\LM3S9B92-EVALBOT\IAR #
#                    \uCOS-III-CE4053_PG\Flash\Obj\os_cpu_a.o                 #
#                    C:\RTOS_Project\src\skynet\cpe484_es6153\Micrium\Softwar #
#                    e\EvalBoards\TI\LM3S9B92-EVALBOT\IAR\uCOS-III-CE4053_PG\ #
#                    Flash\Obj\os_cpu_c.o C:\RTOS_Project\src\skynet\cpe484_e #
#                    s6153\Micrium\Software\EvalBoards\TI\LM3S9B92-EVALBOT\IA #
#                    R\uCOS-III-CE4053_PG\Flash\Obj\os_dbg.o                  #
#                    C:\RTOS_Project\src\skynet\cpe484_es6153\Micrium\Softwar #
#                    e\EvalBoards\TI\LM3S9B92-EVALBOT\IAR\uCOS-III-CE4053_PG\ #
#                    Flash\Obj\os_flag.o C:\RTOS_Project\src\skynet\cpe484_es #
#                    6153\Micrium\Software\EvalBoards\TI\LM3S9B92-EVALBOT\IAR #
#                    \uCOS-III-CE4053_PG\Flash\Obj\os_int.o                   #
#                    C:\RTOS_Project\src\skynet\cpe484_es6153\Micrium\Softwar #
#                    e\EvalBoards\TI\LM3S9B92-EVALBOT\IAR\uCOS-III-CE4053_PG\ #
#                    Flash\Obj\os_mem.o C:\RTOS_Project\src\skynet\cpe484_es6 #
#                    153\Micrium\Software\EvalBoards\TI\LM3S9B92-EVALBOT\IAR\ #
#                    uCOS-III-CE4053_PG\Flash\Obj\os_msg.o                    #
#                    C:\RTOS_Project\src\skynet\cpe484_es6153\Micrium\Softwar #
#                    e\EvalBoards\TI\LM3S9B92-EVALBOT\IAR\uCOS-III-CE4053_PG\ #
#                    Flash\Obj\os_mutex.o C:\RTOS_Project\src\skynet\cpe484_e #
#                    s6153\Micrium\Software\EvalBoards\TI\LM3S9B92-EVALBOT\IA #
#                    R\uCOS-III-CE4053_PG\Flash\Obj\os_pend_multi.o           #
#                    C:\RTOS_Project\src\skynet\cpe484_es6153\Micrium\Softwar #
#                    e\EvalBoards\TI\LM3S9B92-EVALBOT\IAR\uCOS-III-CE4053_PG\ #
#                    Flash\Obj\os_prio.o C:\RTOS_Project\src\skynet\cpe484_es #
#                    6153\Micrium\Software\EvalBoards\TI\LM3S9B92-EVALBOT\IAR #
#                    \uCOS-III-CE4053_PG\Flash\Obj\os_q.o                     #
#                    C:\RTOS_Project\src\skynet\cpe484_es6153\Micrium\Softwar #
#                    e\EvalBoards\TI\LM3S9B92-EVALBOT\IAR\uCOS-III-CE4053_PG\ #
#                    Flash\Obj\os_sem.o C:\RTOS_Project\src\skynet\cpe484_es6 #
#                    153\Micrium\Software\EvalBoards\TI\LM3S9B92-EVALBOT\IAR\ #
#                    uCOS-III-CE4053_PG\Flash\Obj\os_stat.o                   #
#                    C:\RTOS_Project\src\skynet\cpe484_es6153\Micrium\Softwar #
#                    e\EvalBoards\TI\LM3S9B92-EVALBOT\IAR\uCOS-III-CE4053_PG\ #
#                    Flash\Obj\os_task.o C:\RTOS_Project\src\skynet\cpe484_es #
#                    6153\Micrium\Software\EvalBoards\TI\LM3S9B92-EVALBOT\IAR #
#                    \uCOS-III-CE4053_PG\Flash\Obj\os_tick.o                  #
#                    C:\RTOS_Project\src\skynet\cpe484_es6153\Micrium\Softwar #
#                    e\EvalBoards\TI\LM3S9B92-EVALBOT\IAR\uCOS-III-CE4053_PG\ #
#                    Flash\Obj\os_time.o C:\RTOS_Project\src\skynet\cpe484_es #
#                    6153\Micrium\Software\EvalBoards\TI\LM3S9B92-EVALBOT\IAR #
#                    \uCOS-III-CE4053_PG\Flash\Obj\os_tmr.o                   #
#                    C:\RTOS_Project\src\skynet\cpe484_es6153\Micrium\Softwar #
#                    e\EvalBoards\TI\LM3S9B92-EVALBOT\IAR\uCOS-III-CE4053_PG\ #
#                    Flash\Obj\os_var.o C:\RTOS_Project\src\skynet\cpe484_es6 #
#                    153\Micrium\Software\EvalBoards\TI\LM3S9B92-EVALBOT\IAR\ #
#                    uCOS-III-CE4053_PG\Flash\Obj\pwm.o                       #
#                    C:\RTOS_Project\src\skynet\cpe484_es6153\Micrium\Softwar #
#                    e\EvalBoards\TI\LM3S9B92-EVALBOT\IAR\uCOS-III-CE4053_PG\ #
#                    Flash\Obj\qei.o C:\RTOS_Project\src\skynet\cpe484_es6153 #
#                    \Micrium\Software\EvalBoards\TI\LM3S9B92-EVALBOT\IAR\uCO #
#                    S-III-CE4053_PG\Flash\Obj\ssi.o                          #
#                    C:\RTOS_Project\src\skynet\cpe484_es6153\Micrium\Softwar #
#                    e\EvalBoards\TI\LM3S9B92-EVALBOT\IAR\uCOS-III-CE4053_PG\ #
#                    Flash\Obj\sysctl.o C:\RTOS_Project\src\skynet\cpe484_es6 #
#                    153\Micrium\Software\EvalBoards\TI\LM3S9B92-EVALBOT\IAR\ #
#                    uCOS-III-CE4053_PG\Flash\Obj\systick.o                   #
#                    C:\RTOS_Project\src\skynet\cpe484_es6153\Micrium\Softwar #
#                    e\EvalBoards\TI\LM3S9B92-EVALBOT\IAR\uCOS-III-CE4053_PG\ #
#                    Flash\Obj\timer.o C:\RTOS_Project\src\skynet\cpe484_es61 #
#                    53\Micrium\Software\EvalBoards\TI\LM3S9B92-EVALBOT\IAR\u #
#                    COS-III-CE4053_PG\Flash\Obj\uart.o                       #
#                    C:\RTOS_Project\src\skynet\cpe484_es6153\Micrium\Softwar #
#                    e\EvalBoards\TI\LM3S9B92-EVALBOT\IAR\uCOS-III-CE4053_PG\ #
#                    Flash\Obj\udma.o C:\RTOS_Project\src\skynet\cpe484_es615 #
#                    3\Micrium\Software\EvalBoards\TI\LM3S9B92-EVALBOT\IAR\uC #
#                    OS-III-CE4053_PG\Flash\Obj\usb.o                         #
#                    C:\RTOS_Project\src\skynet\cpe484_es6153\Micrium\Softwar #
#                    e\EvalBoards\TI\LM3S9B92-EVALBOT\IAR\uCOS-III-CE4053_PG\ #
#                    Flash\Obj\watchdog.o --redirect _Printf=_PrintfFull      #
#                    --redirect _Scanf=_ScanfFull -o                          #
#                    C:\RTOS_Project\src\skynet\cpe484_es6153\Micrium\Softwar #
#                    e\EvalBoards\TI\LM3S9B92-EVALBOT\IAR\uCOS-III-CE4053_PG\ #
#                    Flash\Exe\uCOS-III-Ex4.out --map                         #
#                    C:\RTOS_Project\src\skynet\cpe484_es6153\Micrium\Softwar #
#                    e\EvalBoards\TI\LM3S9B92-EVALBOT\IAR\uCOS-III-CE4053_PG\ #
#                    Flash\List\uCOS-III-Ex4.map --config                     #
#                    C:\RTOS_Project\src\skynet\cpe484_es6153\Micrium\Softwar #
#                    e\EvalBoards\TI\LM3S9B92-EVALBOT\IAR\uCOS-III-CE4053_PG\ #
#                    ..\BSP\LM3S9B92_Flash.icf --semihosting --entry          #
#                    __iar_program_start --vfe                                #
#                                                                             #
#                                                                             #
###############################################################################

*******************************************************************************
*** RUNTIME MODEL ATTRIBUTES
***

CppFlavor                     = *
__Heap_Handler                = Basic
__SystemLibrary               = DLib
__dlib_dynamic_initialization = normal


*******************************************************************************
*** PLACEMENT SUMMARY
***

"A1":  place at start of [0x00000000-0x0003ffff] { ro section .intvec };
"P1":  place in [from 0x00000000 to 0x0003ffff] { ro };
"P7":  place in [from 0x20000000 to 0x20017fff] { rw, block HEAP, block CSTACK };

  Section             Kind        Address    Size  Object
  -------             ----        -------    ----  ------
"A1":                                       0x11c
  .intvec             const    0x00000000   0x11c  app_vect.o [1]
                             - 0x0000011c   0x11c

"P1":                                      0x864c
  .text               ro code  0x0000011c  0x12d0  fatfs.o [1]
  .text               ro code  0x000013ec    0x42  strcmp_unaligned.o [5]
  .text               ro code  0x0000142e    0x22  zero_init3.o [5]
  .text               ro code  0x00001450   0x7c8  microsd.o [1]
  .text               ro code  0x00001c18    0x14  memset.o [3]
  .text               ro code  0x00001c2c    0x62  memcmp_unaligned.o [5]
  .text               ro code  0x00001c8e     0xc  memcpy.o [3]
  .text               ro code  0x00001c9a     0xa  xsprout.o [3]
  .text               ro code  0x00001ca4    0x36  strlen.o [5]
  .rodata             const    0x00001cda     0x2  os_cfg_app.o [1]
  .text               ro code  0x00001cdc    0x44  strcpy_unaligned.o [5]
  .text               ro code  0x00001d20    0x1c  strcat.o [3]
  .text               ro code  0x00001d3c    0x34  sprintf.o [3]
  .text               ro code  0x00001d70   0x2fc  gpio.o [1]
  .text               ro code  0x0000206c    0xa0  ssi.o [1]
  .text               ro code  0x0000210c   0x490  sysctl.o [1]
  .text               ro code  0x0000259c    0x66  ABImemset.o [5]
  .rodata             const    0x00002602     0x2  os_cfg_app.o [1]
  .text               ro code  0x00002604    0x76  ABImemcpy_unaligned.o [5]
  .rodata             const    0x0000267a     0x2  os_dbg.o [1]
  .text               ro code  0x0000267c  0x116e  xprintffull.o [3]
  .text               ro code  0x000037ea    0x20  xmbtowc.o [3]
  .rodata             const    0x0000380a     0x2  os_dbg.o [1]
  .text               ro code  0x0000380c    0x16  strchr.o [5]
  .rodata             const    0x00003822     0x2  os_dbg.o [1]
  .text               ro code  0x00003824    0x58  memchr.o [5]
  .text               ro code  0x0000387c     0xa  xmbcurmax.o [3]
  .rodata             const    0x00003886     0x2  os_dbg.o [1]
  .text               ro code  0x00003888    0xb0  xxmemxmalloc.o [3]
  .text               ro code  0x00003938    0x1a  xwctomb.o [3]
  .rodata             const    0x00003952     0x2  os_dbg.o [1]
  .text               ro code  0x00003954    0x80  xxmemxfree.o [3]
  .text               ro code  0x000039d4    0xee  I64DivMod.o [5]
  .rodata             const    0x00003ac2     0x2  os_dbg.o [1]
  .text               ro code  0x00003ac4   0x1a2  DblMul.o [4]
  .text               ro code  0x00003c66    0x42  xdnorm.o [4]
  .text               ro code  0x00003ca8    0x2e  DblCmpLe.o [4]
  .rodata             const    0x00003cd6     0x2  os_dbg.o [1]
  .text               ro code  0x00003cd8    0x2e  DblCmpGe.o [4]
  .rodata             const    0x00003d06     0x2  os_dbg.o [1]
  .text               ro code  0x00003d08   0x10c  xdscale.o [4]
  .text               ro code  0x00003e14    0x58  DblToI32.o [4]
  .text               ro code  0x00003e6c    0x30  I32ToDbl.o [4]
  .text               ro code  0x00003e9c   0x180  DblSub.o [4]
  .text               ro code  0x0000401c   0x246  DblDiv.o [4]
  .rodata             const    0x00004262     0x2  os_dbg.o [1]
  .text               ro code  0x00004264    0x6c  localeconv.o [3]
  .text               ro code  0x000042d0     0xe  div.o [3]
  .rodata             const    0x000042de     0x2  os_dbg.o [1]
  .text               ro code  0x000042e0    0x14  setlocale.o [3]
  .text               ro code  0x000042f4    0x60  xencoding_sb.o [3]
  .text               ro code  0x00004354    0x2c  xgetmemchunk.o [3]
  .text               ro code  0x00004380     0x2  I64DivZer.o [5]
  .rodata             const    0x00004382     0x2  os_dbg.o [1]
  .text               ro code  0x00004384    0xd4  DblAdd.o [4]
  .text               ro code  0x00004458     0x2  xtls.o [3]
  .rodata             const    0x0000445a     0x2  os_dbg.o [1]
  .text               ro code  0x0000445c   0xa50  os_core.o [1]
  .text               ro code  0x00004eac   0x1a8  os_cpu_c.o [1]
  .text               ro code  0x00005054    0x88  os_prio.o [1]
  .text               ro code  0x000050dc   0x730  os_task.o [1]
  .text               ro code  0x0000580c   0x3f8  os_tick.o [1]
  .text               ro code  0x00005c04    0x1c  os_flag.o [1]
  .text               ro code  0x00005c20   0x15c  os_msg.o [1]
  .text               ro code  0x00005d7c   0x340  os_mutex.o [1]
  .text               ro code  0x000060bc   0x2a0  os_q.o [1]
  .text               ro code  0x0000635c    0x1c  os_sem.o [1]
  .text               ro code  0x00006378   0x210  os_dbg.o [1]
  .text               ro code  0x00006588    0xa0  os_cfg_app.o [1]
  CODE                ro code  0x00006628    0x2a  cpu_a.o [1]
  .rodata             const    0x00006652     0x2  os_dbg.o [1]
  CODE                ro code  0x00006654    0x84  os_cpu_a.o [1]
  .text               ro code  0x000066d8   0x1a0  cpu_core.o [1]
  .text               ro code  0x00006878    0x28  cpu_bsp.o [1]
  .text               ro code  0x000068a0    0x5c  os_time.o [1]
  .text               ro code  0x000068fc    0x66  lib_mem.o [1]
  .rodata             const    0x00006962     0x2  os_dbg.o [1]
  .text               ro code  0x00006964    0xa8  bsp.o [1]
  .text               ro code  0x00006a0c   0x256  bsp_int.o [1]
  .rodata             const    0x00006c62     0x2  os_dbg.o [1]
  .text               ro code  0x00006c64   0x334  bsp_display.o [1]
  .text               ro code  0x00006f98    0xc0  bsp_io.o [1]
  .text               ro code  0x00007058   0x154  bsp_sensors.o [1]
  .text               ro code  0x000071ac   0x1f8  bsp_motor.o [1]
  .text               ro code  0x000073a4   0x13c  cpu_c.o [1]
  .text               ro code  0x000074e0    0xac  i2c.o [1]
  .text               ro code  0x0000758c    0x98  pwm.o [1]
  .text               ro code  0x00007624   0x91c  app.o [1]
  .text               ro code  0x00007f40    0x40  ethernet.o [1]
  .rodata             const    0x00007f80   0x1dc  bsp_display.o [1]
  .text               ro code  0x0000815c    0xd4  packbits_init.o [5]
  .text               ro code  0x00008230     0x6  abort.o [3]
  .rodata             const    0x00008236     0x2  os_dbg.o [1]
  .text               ro code  0x00008238    0x14  exit.o [6]
  .rodata             const    0x0000824c    0x5c  sysctl.o [1]
  .rodata             const    0x000082a8    0x50  bsp_display.o [1]
  .rodata             const    0x000082f8    0x48  gpio.o [1]
  .rodata             const    0x00008340    0x34  os_dbg.o [1]
  .rodata             const    0x00008374    0x30  os_dbg.o [1]
  .rodata             const    0x000083a4    0x2c  os_dbg.o [1]
  .rodata             const    0x000083d0    0x28  os_dbg.o [1]
  .rodata             const    0x000083f8    0x28  os_dbg.o [1]
  .text               ro code  0x00008420    0x28  data_init.o [5]
  .rodata             const    0x00008448    0x24  fatfs.o [1]
  .iar.init_table     const    0x0000846c    0x2c  - Linker created -
  .rodata             const    0x00008498    0x20  fatfs.o [1]
  .rodata             const    0x000084b8    0x20  os_dbg.o [1]
  .rodata             const    0x000084d8    0x1c  fatfs.o [1]
  .text               ro code  0x000084f4    0x1a  cmain.o [5]
  .text               ro code  0x0000850e     0x4  low_level_init.o [3]
  .text               ro code  0x00008512     0x4  exit.o [3]
  .rodata             const    0x00008516     0x2  os_dbg.o [1]
  .text               ro code  0x00008518     0xa  cexit.o [5]
  .rodata             const    0x00008522     0x2  os_dbg.o [1]
  .rodata             const    0x00008524    0x18  app.o [1]
  .rodata             const    0x0000853c    0x14  app.o [1]
  .rodata             const    0x00008550    0x14  os_core.o [1]
  .rodata             const    0x00008564    0x14  os_tick.o [1]
  .rodata             const    0x00008578    0x10  app.o [1]
  .rodata             const    0x00008588    0x10  app.o [1]
  .rodata             const    0x00008598    0x10  app.o [1]
  .rodata             const    0x000085a8    0x10  app.o [1]
  .rodata             const    0x000085b8    0x10  app.o [1]
  .rodata             const    0x000085c8    0x10  app.o [1]
  .rodata             const    0x000085d8     0xc  app.o [1]
  .rodata             const    0x000085e4     0xc  app.o [1]
  .rodata             const    0x000085f0     0xc  app.o [1]
  .rodata             const    0x000085fc     0xc  app.o [1]
  .rodata             const    0x00008608     0xc  os_core.o [1]
  .rodata             const    0x00008614     0xc  sysctl.o [1]
  .rodata             const    0x00008620     0xc  sysctl.o [1]
  .rodata             const    0x0000862c     0xc  sysctl.o [1]
  .text               ro code  0x00008638     0xc  app_vect.o [1]
  .text               ro code  0x00008644     0xc  cstartup_M.o [5]
  .rodata             const    0x00008650     0x8  bsp_display.o [1]
  .rodata             const    0x00008658     0x8  bsp_display.o [1]
  .rodata             const    0x00008660     0x8  fatfs.o [1]
  .rodata             const    0x00008668     0x8  fatfs.o [1]
  .rodata             const    0x00008670     0x8  fatfs.o [1]
  .rodata             const    0x00008678     0x8  fatfs.o [1]
  .rodata             const    0x00008680     0x8  os_core.o [1]
  .rodata             const    0x00008688     0x8  os_task.o [1]
  .rodata             const    0x00008690     0x4  fatfs.o [1]
  .rodata             const    0x00008694     0x4  fatfs.o [1]
  .rodata             const    0x00008698     0x4  fatfs.o [1]
  .rodata             const    0x0000869c     0x4  os_cfg_app.o [1]
  .rodata             const    0x000086a0     0x4  os_cfg_app.o [1]
  .rodata             const    0x000086a4     0x4  os_cfg_app.o [1]
  .rodata             const    0x000086a8     0x4  os_cfg_app.o [1]
  .rodata             const    0x000086ac     0x4  os_cfg_app.o [1]
  .rodata             const    0x000086b0     0x4  os_cfg_app.o [1]
  .rodata             const    0x000086b4     0x4  os_cfg_app.o [1]
  .rodata             const    0x000086b8     0x4  os_cfg_app.o [1]
  .rodata             const    0x000086bc     0x4  os_cfg_app.o [1]
  .rodata             const    0x000086c0     0x4  os_cfg_app.o [1]
  .rodata             const    0x000086c4     0x4  os_cfg_app.o [1]
  .rodata             const    0x000086c8     0x4  os_cfg_app.o [1]
  .rodata             const    0x000086cc     0x4  os_cfg_app.o [1]
  .rodata             const    0x000086d0     0x4  os_cfg_app.o [1]
  .rodata             const    0x000086d4     0x4  os_cfg_app.o [1]
  .rodata             const    0x000086d8     0x4  os_cfg_app.o [1]
  .rodata             const    0x000086dc     0x4  os_cfg_app.o [1]
  .rodata             const    0x000086e0     0x4  os_dbg.o [1]
  .rodata             const    0x000086e4     0x4  os_dbg.o [1]
  .rodata             const    0x000086e8     0x4  os_dbg.o [1]
  .rodata             const    0x000086ec     0x2  os_dbg.o [1]
  .rodata             const    0x000086ee     0x2  os_dbg.o [1]
  .rodata             const    0x000086f0     0x1  os_cfg_app.o [1]
  .rodata             const    0x000086f1     0x1  os_dbg.o [1]
  .rodata             const    0x000086f2     0x1  os_dbg.o [1]
  .rodata             const    0x000086f3     0x1  os_dbg.o [1]
  .rodata             const    0x000086f4     0x1  os_dbg.o [1]
  .rodata             const    0x000086f5     0x1  os_dbg.o [1]
  .rodata             const    0x000086f6     0x1  os_dbg.o [1]
  .rodata             const    0x000086f7     0x1  os_dbg.o [1]
  .rodata             const    0x000086f8     0x1  os_dbg.o [1]
  .rodata             const    0x000086f9     0x1  os_dbg.o [1]
  .rodata             const    0x000086fa     0x1  os_dbg.o [1]
  .rodata             const    0x000086fb     0x1  os_dbg.o [1]
  .rodata             const    0x000086fc     0x1  os_dbg.o [1]
  .rodata             const    0x000086fd     0x1  os_dbg.o [1]
  .rodata             const    0x000086fe     0x1  os_dbg.o [1]
  .rodata             const    0x000086ff     0x1  os_dbg.o [1]
  .rodata             const    0x00008700     0x1  os_dbg.o [1]
  .rodata             const    0x00008701     0x1  os_dbg.o [1]
  .rodata             const    0x00008702     0x1  os_dbg.o [1]
  .rodata             const    0x00008703     0x1  os_dbg.o [1]
  .rodata             const    0x00008704     0x1  os_dbg.o [1]
  .rodata             const    0x00008705     0x1  os_dbg.o [1]
  .rodata             const    0x00008706     0x1  os_dbg.o [1]
  .rodata             const    0x00008707     0x1  os_dbg.o [1]
  .rodata             const    0x00008708     0x1  os_dbg.o [1]
  .rodata             const    0x00008709     0x1  os_dbg.o [1]
  .rodata             const    0x0000870a     0x1  os_dbg.o [1]
  .rodata             const    0x0000870b     0x1  os_dbg.o [1]
  .rodata             const    0x0000870c     0x1  os_dbg.o [1]
  .rodata             const    0x0000870d     0x1  os_dbg.o [1]
  .rodata             const    0x0000870e     0x1  os_dbg.o [1]
  .rodata             const    0x0000870f     0x1  os_dbg.o [1]
  .rodata             const    0x00008710     0x1  os_dbg.o [1]
  .rodata             const    0x00008711     0x1  os_dbg.o [1]
  .rodata             const    0x00008712     0x1  os_dbg.o [1]
  .rodata             const    0x00008713     0x1  os_dbg.o [1]
  .rodata             const    0x00008714     0x1  os_dbg.o [1]
  .rodata             const    0x00008715     0x1  os_dbg.o [1]
  .rodata             const    0x00008716     0x0  zero_init3.o [5]
  .rodata             const    0x00008716     0x0  packbits_init.o [5]
  Initializer bytes   ro data  0x00008716    0x51  <for P7 s0>
                             - 0x00008767  0x864b

"P7", part 1 of 3:                          0x19c
  P7 s0                        0x20000000   0x199  <Init block>
    __DLIB_PERTHREAD  inited   0x20000000    0x88  localeconv.o [3]
    __DLIB_PERTHREAD  inited   0x20000088    0x74  setlocale.o [3]
    .data             inited   0x200000fc    0x40  fatfs.o [1]
    .data             inited   0x2000013c    0x30  fatfs.o [1]
    .data             inited   0x2000016c    0x20  app.o [1]
    .data             inited   0x2000018c     0x4  app.o [1]
    .data             inited   0x20000190     0x4  app.o [1]
    .data             inited   0x20000194     0x4  bsp_display.o [1]
    .data             inited   0x20000198     0x1  microsd.o [1]
                             - 0x20000199   0x199

"P7", part 2 of 3:                         0x29d4
  .bss                zero     0x2000019c   0x640  os_cfg_app.o [1]
  .bss                zero     0x200007dc   0x22c  app.o [1]
  .bss                zero     0x20000a08   0x224  fatfs.o [1]
  .bss                zero     0x20000c2c   0x200  app.o [1]
  .bss                zero     0x20000e2c   0x200  app.o [1]
  .bss                zero     0x2000102c   0x200  app.o [1]
  .bss                zero     0x2000122c   0x200  app.o [1]
  .bss                zero     0x2000142c   0x200  app.o [1]
  .bss                zero     0x2000162c   0x200  app.o [1]
  .bss                zero     0x2000182c   0x200  app.o [1]
  .bss                zero     0x20001a2c   0x200  os_cfg_app.o [1]
  .bss                zero     0x20001c2c   0x200  os_cfg_app.o [1]
  .bss                zero     0x20001e2c   0x200  os_cfg_app.o [1]
  .bss                zero     0x2000202c   0x118  bsp_int.o [1]
  .bss                zero     0x20002144    0xf0  os_var.o [1]
  .bss                zero     0x20002234    0xc0  app.o [1]
  .bss                zero     0x200022f4    0xc0  app.o [1]
  .bss                zero     0x200023b4    0xc0  app.o [1]
  .bss                zero     0x20002474    0xc0  app.o [1]
  .bss                zero     0x20002534    0xc0  app.o [1]
  .bss                zero     0x200025f4    0xc0  app.o [1]
  .bss                zero     0x200026b4    0xc0  app.o [1]
  .bss                zero     0x20002774    0xc0  os_var.o [1]
  .bss                zero     0x20002834    0xc0  os_var.o [1]
  .bss                zero     0x200028f4    0x68  os_cfg_app.o [1]
  .bss                zero     0x2000295c    0x40  fatfs.o [1]
  .bss                zero     0x2000299c    0x30  app.o [1]
  .bss                zero     0x200029cc    0x2c  app.o [1]
  .bss                zero     0x200029f8    0x2c  app.o [1]
  .bss                zero     0x20002a24    0x2c  app.o [1]
  .bss                zero     0x20002a50    0x24  fatfs.o [1]
  .bss                zero     0x20002a74    0x10  app.o [1]
  .bss                zero     0x20002a84    0x10  app.o [1]
  .bss                zero     0x20002a94    0x10  app.o [1]
  .bss                zero     0x20002aa4    0x10  cpu_core.o [1]
  .bss                zero     0x20002ab4    0x10  os_var.o [1]
  .bss                zero     0x20002ac4     0xc  os_var.o [1]
  .bss                zero     0x20002ad0     0x8  fatfs.o [1]
  .bss                zero     0x20002ad8     0x8  os_var.o [1]
  .bss                zero     0x20002ae0     0x8  xxmemxmalloc.o [3]
  .bss                zero     0x20002ae8     0x4  bsp.o [1]
  .bss                zero     0x20002aec     0x4  bsp_display.o [1]
  .bss                zero     0x20002af0     0x4  cpu_core.o [1]
  .bss                zero     0x20002af4     0x4  cpu_core.o [1]
  .bss                zero     0x20002af8     0x4  cpu_core.o [1]
  .bss                zero     0x20002afc     0x4  cpu_core.o [1]
  .bss                zero     0x20002b00     0x4  cpu_core.o [1]
  .bss                zero     0x20002b04     0x4  cpu_core.o [1]
  .bss                zero     0x20002b08     0x4  os_cpu_c.o [1]
  .bss                zero     0x20002b0c     0x4  os_prio.o [1]
  .bss                zero     0x20002b10     0x4  os_var.o [1]
  .bss                zero     0x20002b14     0x4  os_var.o [1]
  .bss                zero     0x20002b18     0x4  os_var.o [1]
  .bss                zero     0x20002b1c     0x4  os_var.o [1]
  .bss                zero     0x20002b20     0x4  os_var.o [1]
  .bss                zero     0x20002b24     0x4  os_var.o [1]
  .bss                zero     0x20002b28     0x4  os_var.o [1]
  .bss                zero     0x20002b2c     0x4  os_var.o [1]
  .bss                zero     0x20002b30     0x4  os_var.o [1]
  .bss                zero     0x20002b34     0x4  os_var.o [1]
  .bss                zero     0x20002b38     0x4  os_var.o [1]
  .bss                zero     0x20002b3c     0x4  os_var.o [1]
  .bss                zero     0x20002b40     0x4  os_var.o [1]
  .bss                zero     0x20002b44     0x4  os_var.o [1]
  .bss                zero     0x20002b48     0x4  os_var.o [1]
  .bss                zero     0x20002b4c     0x4  xgetmemchunk.o [3]
  .bss                zero     0x20002b50     0x2  cpu_core.o [1]
  .bss                zero     0x20002b52     0x2  cpu_core.o [1]
  .bss                zero     0x20002b54     0x2  fatfs.o [1]
  .bss                zero     0x20002b56     0x2  os_var.o [1]
  .bss                zero     0x20002b58     0x2  os_var.o [1]
  .bss                zero     0x20002b5a     0x2  os_var.o [1]
  .bss                zero     0x20002b5c     0x2  os_var.o [1]
  .bss                zero     0x20002b5e     0x2  os_var.o [1]
  .bss                zero     0x20002b60     0x1  app.o [1]
  .bss                zero     0x20002b61     0x1  app.o [1]
  .bss                zero     0x20002b62     0x1  app.o [1]
  .bss                zero     0x20002b63     0x1  app.o [1]
  .bss                zero     0x20002b64     0x1  app.o [1]
  .bss                zero     0x20002b65     0x1  microsd.o [1]
  .bss                zero     0x20002b66     0x1  microsd.o [1]
  .bss                zero     0x20002b67     0x1  microsd.o [1]
  .bss                zero     0x20002b68     0x1  microsd.o [1]
  .bss                zero     0x20002b69     0x1  os_var.o [1]
  .bss                zero     0x20002b6a     0x1  os_var.o [1]
  .bss                zero     0x20002b6b     0x1  os_var.o [1]
  .bss                zero     0x20002b6c     0x1  os_var.o [1]
  .bss                zero     0x20002b6d     0x1  os_var.o [1]
  .bss                zero     0x20002b6e     0x1  os_var.o [1]
                             - 0x20002b6f  0x29d3

"P7", part 3 of 3:                          0x400
  HEAP                         0x20002b70     0x0  <Block>
  CSTACK                       0x20002b70   0x400  <Block>
    CSTACK            uninit   0x20002b70   0x400  <Block tail>
                             - 0x20002f70   0x400


*******************************************************************************
*** INIT TABLE
***

          Address     Size
          -------     ----
Zero (__iar_zero_init3)
    1 destination range, total size 0x29d3:
          0x2000019c  0x29d3

Copy/packbits (__iar_packbits_init3)
    1 source range, total size 0x51 (19% of destination):
          0x00008716    0x51
    1 destination range, total size 0x199:
          0x20000000   0x199



*******************************************************************************
*** MODULE SUMMARY
***

    Module                 ro code  ro data  rw data
    ------                 -------  -------  -------
C:\RTOS_Project\src\skynet\cpe484_es6153\Micrium\Software\EvalBoards\TI\LM3S9B92-EVALBOT\IAR\uCOS-III-CE4053_PG\Flash\Obj: [1]
    app.o                    2 332      196    5 757
    app_vect.o                  12      284
    bsp.o                      168                 4
    bsp_display.o              820      572        8
    bsp_int.o                  598               280
    bsp_io.o                   192
    bsp_motor.o                504
    bsp_sensors.o              340
    cpu_a.o                     42
    cpu_bsp.o                   40
    cpu_c.o                    316
    cpu_core.o                 416                44
    ethernet.o                  64
    fatfs.o                  4 816      163      770
    gpio.o                     764       72
    i2c.o                      172
    lib_mem.o                  102
    microsd.o                1 992        1        5
    os_cfg_app.o               160       73    3 240
    os_core.o                2 640       40
    os_cpu_a.o                 132
    os_cpu_c.o                 424                 4
    os_dbg.o                   528      345
    os_flag.o                   28
    os_msg.o                   348
    os_mutex.o                 832
    os_prio.o                  136                 4
    os_q.o                     672
    os_sem.o                    28
    os_task.o                1 840        8
    os_tick.o                1 016       20
    os_time.o                   92
    os_var.o                                     736
    pwm.o                      152
    ssi.o                      160
    sysctl.o                 1 168      128
    ------------------------------------------------
    Total:                  24 046    1 902   10 852

command line: [2]
    ------------------------------------------------
    Total:

dl7M_tlf.a: [3]
    abort.o                      6
    div.o                       14
    exit.o                       4
    localeconv.o               108       26      136
    low_level_init.o             4
    memcpy.o                    12
    memset.o                    20
    setlocale.o                 20       23      116
    sprintf.o                   52
    strcat.o                    28
    xencoding_sb.o              96
    xgetmemchunk.o              44                 4
    xmbcurmax.o                 10
    xmbtowc.o                   32
    xprintffull.o            4 462
    xsprout.o                   10
    xtls.o                       2
    xwctomb.o                   26
    xxmemxfree.o               128
    xxmemxmalloc.o             176                 8
    ------------------------------------------------
    Total:                   5 254       49      264

m7M_tl.a: [4]
    DblAdd.o                   212
    DblCmpGe.o                  46
    DblCmpLe.o                  46
    DblDiv.o                   582
    DblMul.o                   418
    DblSub.o                   384
    DblToI32.o                  88
    I32ToDbl.o                  48
    xdnorm.o                    66
    xdscale.o                  268
    ------------------------------------------------
    Total:                   2 158

rt7M_tl.a: [5]
    ABImemcpy_unaligned.o      118
    ABImemset.o                102
    I64DivMod.o                238
    I64DivZer.o                  2
    cexit.o                     10
    cmain.o                     26
    cstartup_M.o                12
    data_init.o                 40
    memchr.o                    88
    memcmp_unaligned.o          98
    packbits_init.o            212
    strchr.o                    22
    strcmp_unaligned.o          66
    strcpy_unaligned.o          68
    strlen.o                    54
    zero_init3.o                34
    ------------------------------------------------
    Total:                   1 190

shb_l.a: [6]
    exit.o                      20
    ------------------------------------------------
    Total:                      20

    Linker created                       44    1 024
----------------------------------------------------
    Grand Total:            32 668    1 995   12 140


*******************************************************************************
*** ENTRY LIST
***

Entry                      Address   Size  Type      Object
-----                      -------   ----  ----      ------
?main                   0x000084f5         Code  Gb  cmain.o [5]
AppRobotMotorDriveSensorEnable
                        0x00007d97   0x1c  Code  Lc  app.o [1]
AppTaskOne              0x00007ac9   0xc4  Code  Lc  app.o [1]
AppTaskOneStk           0x20000e2c  0x200  Data  Lc  app.o [1]
AppTaskOneTCB           0x200022f4   0xc0  Data  Lc  app.o [1]
AppTaskRepeatOne        0x000078dd   0x98  Code  Lc  app.o [1]
AppTaskRepeatOneStk     0x2000142c  0x200  Data  Lc  app.o [1]
AppTaskRepeatOneTCB     0x20002534   0xc0  Data  Lc  app.o [1]
AppTaskRepeatThree      0x00007a1d   0xa8  Code  Lc  app.o [1]
AppTaskRepeatThreeStk   0x2000182c  0x200  Data  Lc  app.o [1]
AppTaskRepeatThreeTCB   0x200026b4   0xc0  Data  Lc  app.o [1]
AppTaskRepeatTwo        0x00007975   0xa6  Code  Lc  app.o [1]
AppTaskRepeatTwoStk     0x2000162c  0x200  Data  Lc  app.o [1]
AppTaskRepeatTwoTCB     0x200025f4   0xc0  Data  Lc  app.o [1]
AppTaskStart            0x00007681  0x25c  Code  Lc  app.o [1]
AppTaskStartStk         0x20000c2c  0x200  Data  Lc  app.o [1]
AppTaskStartTCB         0x20002234   0xc0  Data  Lc  app.o [1]
AppTaskThree            0x00007c35   0x90  Code  Lc  app.o [1]
AppTaskThreeStk         0x2000122c  0x200  Data  Lc  app.o [1]
AppTaskThreeTCB         0x20002474   0xc0  Data  Lc  app.o [1]
AppTaskTwo              0x00007b91   0xa2  Code  Lc  app.o [1]
AppTaskTwoStk           0x2000102c  0x200  Data  Lc  app.o [1]
AppTaskTwoTCB           0x200023b4   0xc0  Data  Lc  app.o [1]
App_BusFault_ISR        0x0000863d    0x2  Code  Lc  app_vect.o [1]
App_Fault_ISR           0x0000863b    0x2  Code  Lc  app_vect.o [1]
App_MemFault_ISR        0x00008641    0x2  Code  Lc  app_vect.o [1]
App_NMI_ISR             0x00008639    0x2  Code  Lc  app_vect.o [1]
App_Spurious_ISR        0x00008643    0x2  Code  Lc  app_vect.o [1]
App_UsageFault_ISR      0x0000863f    0x2  Code  Lc  app_vect.o [1]
BSP_BumpSensorsInit     0x00007059   0x18  Code  Gb  bsp_sensors.o [1]
BSP_CPUClkFreq          0x000069c9   0x12  Code  Gb  bsp.o [1]
BSP_CPU_ClkFreq_MHz     0x20002ae8    0x4  Data  Gb  bsp.o [1]
BSP_DisplayClear        0x00006d3d   0x4c  Code  Gb  bsp_display.o [1]
BSP_DisplayInit         0x00006e8b   0xd8  Code  Gb  bsp_display.o [1]
BSP_DisplayOn           0x00006e4f   0x3c  Code  Gb  bsp_display.o [1]
BSP_DisplayStringDraw   0x00006d89   0xc6  Code  Gb  bsp_display.o [1]
BSP_DisplayWriteArray   0x00006cbf   0x3e  Code  Lc  bsp_display.o [1]
BSP_DisplayWriteByte    0x00006c8d   0x32  Code  Lc  bsp_display.o [1]
BSP_DisplayWriteFinal   0x00006cfd   0x40  Code  Lc  bsp_display.o [1]
BSP_DisplayWriteFirst   0x00006c65   0x28  Code  Lc  bsp_display.o [1]
BSP_Init                0x00006965   0x64  Code  Gb  bsp.o [1]
BSP_IntDisAll           0x00006a0d    0x8  Code  Gb  bsp_int.o [1]
BSP_IntEn               0x00006a15   0x10  Code  Gb  bsp_int.o [1]
BSP_IntHandler          0x00006c3b   0x20  Code  Lc  bsp_int.o [1]
BSP_IntHandlerADC0      0x00006abf    0xa  Code  Gb  bsp_int.o [1]
BSP_IntHandlerADC1      0x00006ac9    0xa  Code  Gb  bsp_int.o [1]
BSP_IntHandlerADC1_0    0x00006bf5    0xa  Code  Gb  bsp_int.o [1]
BSP_IntHandlerADC1_1    0x00006bff    0xa  Code  Gb  bsp_int.o [1]
BSP_IntHandlerADC1_2    0x00006c09    0xa  Code  Gb  bsp_int.o [1]
BSP_IntHandlerADC1_3    0x00006c13    0xa  Code  Gb  bsp_int.o [1]
BSP_IntHandlerADC2      0x00006ad3    0xa  Code  Gb  bsp_int.o [1]
BSP_IntHandlerADC3      0x00006add    0xa  Code  Gb  bsp_int.o [1]
BSP_IntHandlerCAN0      0x00006baf    0xa  Code  Gb  bsp_int.o [1]
BSP_IntHandlerCAN1      0x00006bb9    0xa  Code  Gb  bsp_int.o [1]
BSP_IntHandlerCOMP0     0x00006b2d    0xa  Code  Gb  bsp_int.o [1]
BSP_IntHandlerCOMP1     0x00006b37    0xa  Code  Gb  bsp_int.o [1]
BSP_IntHandlerCOMP2     0x00006b41    0xa  Code  Gb  bsp_int.o [1]
BSP_IntHandlerDummy     0x00006c61    0x2  Code  Lc  bsp_int.o [1]
BSP_IntHandlerEPI       0x00006c27    0xa  Code  Gb  bsp_int.o [1]
BSP_IntHandlerETH       0x00006bc3    0xa  Code  Gb  bsp_int.o [1]
BSP_IntHandlerFLASH     0x00006b55    0xa  Code  Gb  bsp_int.o [1]
BSP_IntHandlerGPIOA     0x00006a65    0xa  Code  Gb  bsp_int.o [1]
BSP_IntHandlerGPIOB     0x00006a6f    0xa  Code  Gb  bsp_int.o [1]
BSP_IntHandlerGPIOC     0x00006a79    0xa  Code  Gb  bsp_int.o [1]
BSP_IntHandlerGPIOD     0x00006a83    0xa  Code  Gb  bsp_int.o [1]
BSP_IntHandlerGPIOE     0x00006a8d    0xa  Code  Gb  bsp_int.o [1]
BSP_IntHandlerGPIOF     0x00006b5f    0xa  Code  Gb  bsp_int.o [1]
BSP_IntHandlerGPIOG     0x00006b69    0xa  Code  Gb  bsp_int.o [1]
BSP_IntHandlerGPIOH     0x00006b73    0xa  Code  Gb  bsp_int.o [1]
BSP_IntHandlerGPIOJ     0x00006c31    0xa  Code  Gb  bsp_int.o [1]
BSP_IntHandlerHIBERNATE
                        0x00006bcd    0xa  Code  Gb  bsp_int.o [1]
BSP_IntHandlerI2C0      0x00006ab5    0xa  Code  Gb  bsp_int.o [1]
BSP_IntHandlerI2C1      0x00006ba5    0xa  Code  Gb  bsp_int.o [1]
BSP_IntHandlerI2S0      0x00006c1d    0xa  Code  Gb  bsp_int.o [1]
BSP_IntHandlerSSI0      0x00006aab    0xa  Code  Gb  bsp_int.o [1]
BSP_IntHandlerSSI1      0x00006b87    0xa  Code  Gb  bsp_int.o [1]
BSP_IntHandlerSYSCTL    0x00006b4b    0xa  Code  Gb  bsp_int.o [1]
BSP_IntHandlerTIMER0A   0x00006af1    0xa  Code  Gb  bsp_int.o [1]
BSP_IntHandlerTIMER0B   0x00006afb    0xa  Code  Gb  bsp_int.o [1]
BSP_IntHandlerTIMER1A   0x00006b05    0xa  Code  Gb  bsp_int.o [1]
BSP_IntHandlerTIMER1B   0x00006b0f    0xa  Code  Gb  bsp_int.o [1]
BSP_IntHandlerTIMER2A   0x00006b19    0xa  Code  Gb  bsp_int.o [1]
BSP_IntHandlerTIMER2B   0x00006b23    0xa  Code  Gb  bsp_int.o [1]
BSP_IntHandlerTIMER3A   0x00006b91    0xa  Code  Gb  bsp_int.o [1]
BSP_IntHandlerTIMER3B   0x00006b9b    0xa  Code  Gb  bsp_int.o [1]
BSP_IntHandlerUART0     0x00006a97    0xa  Code  Gb  bsp_int.o [1]
BSP_IntHandlerUART1     0x00006aa1    0xa  Code  Gb  bsp_int.o [1]
BSP_IntHandlerUART2     0x00006b7d    0xa  Code  Gb  bsp_int.o [1]
BSP_IntHandlerUDMA_ERR  0x00006beb    0xa  Code  Gb  bsp_int.o [1]
BSP_IntHandlerUDMA_SW   0x00006be1    0xa  Code  Gb  bsp_int.o [1]
BSP_IntHandlerUSB       0x00006bd7    0xa  Code  Gb  bsp_int.o [1]
BSP_IntHandlerWATCHDOG  0x00006ae7    0xa  Code  Gb  bsp_int.o [1]
BSP_IntInit             0x00006a4d   0x18  Code  Gb  bsp_int.o [1]
BSP_IntVectSet          0x00006a25   0x28  Code  Gb  bsp_int.o [1]
BSP_IntVectTbl          0x2000202c  0x118  Data  Lc  bsp_int.o [1]
BSP_LED_Off             0x00006fc3   0x36  Code  Gb  bsp_io.o [1]
BSP_LED_Toggle          0x00006ff9   0x54  Code  Gb  bsp_io.o [1]
BSP_LEDsInit            0x00006fb1   0x12  Code  Gb  bsp_io.o [1]
BSP_MotorDir            0x00007289   0x44  Code  Gb  bsp_motor.o [1]
BSP_MotorRun            0x000072cd   0x1c  Code  Gb  bsp_motor.o [1]
BSP_MotorSpeed          0x00007319   0x76  Code  Gb  bsp_motor.o [1]
BSP_MotorStop           0x000072e9   0x30  Code  Gb  bsp_motor.o [1]
BSP_MotorsInit          0x000071ad   0xdc  Code  Gb  bsp_motor.o [1]
BSP_PushButtonsInit     0x00006f99   0x18  Code  Gb  bsp_io.o [1]
BSP_WheelSensorEnable   0x00007113    0xe  Code  Gb  bsp_sensors.o [1]
BSP_WheelSensorIntEnable
                        0x00007121   0x7e  Code  Gb  bsp_sensors.o [1]
BSP_WheelSensorsInit    0x00007071   0xa2  Code  Gb  bsp_sensors.o [1]
CPU_CntLeadZeros        0x0000663f         Code  Gb  cpu_a.o [1]
CPU_Init                0x000066d9   0x10  Code  Gb  cpu_core.o [1]
CPU_IntDis              0x00006629         Code  Gb  cpu_a.o [1]
CPU_IntDisMeasCtr       0x20002b50    0x2  Data  Gb  cpu_core.o [1]
CPU_IntDisMeasInit      0x000067cb   0x74  Code  Lc  cpu_core.o [1]
CPU_IntDisMeasMaxCalc   0x0000683f   0x14  Code  Lc  cpu_core.o [1]
CPU_IntDisMeasMaxCurGet
                        0x00006731   0x1c  Code  Gb  cpu_core.o [1]
CPU_IntDisMeasMaxCurReset
                        0x00006711   0x20  Code  Gb  cpu_core.o [1]
CPU_IntDisMeasMaxCur_cnts
                        0x20002b00    0x4  Data  Gb  cpu_core.o [1]
CPU_IntDisMeasMax_cnts  0x20002b04    0x4  Data  Gb  cpu_core.o [1]
CPU_IntDisMeasOvrhd_cnts
                        0x20002afc    0x4  Data  Gb  cpu_core.o [1]
CPU_IntDisMeasStart     0x0000674d   0x28  Code  Gb  cpu_core.o [1]
CPU_IntDisMeasStart_cnts
                        0x20002af4    0x4  Data  Gb  cpu_core.o [1]
CPU_IntDisMeasStop      0x00006775   0x40  Code  Gb  cpu_core.o [1]
CPU_IntDisMeasStop_cnts
                        0x20002af8    0x4  Data  Gb  cpu_core.o [1]
CPU_IntDisNestCtr       0x20002b52    0x2  Data  Gb  cpu_core.o [1]
CPU_IntEn               0x0000662d         Code  Gb  cpu_a.o [1]
CPU_IntSrcEn            0x000073a5  0x12c  Code  Gb  cpu_c.o [1]
CPU_Name                0x20002aa4   0x10  Data  Gb  cpu_core.o [1]
CPU_NameClr             0x000066e9   0x22  Code  Gb  cpu_core.o [1]
CPU_NameInit            0x000067b5    0x8  Code  Lc  cpu_core.o [1]
CPU_RevBits             0x00006645         Code  Gb  cpu_a.o [1]
CPU_SR_Restore          0x00006639         Code  Gb  cpu_a.o [1]
CPU_SR_Save             0x00006631         Code  Gb  cpu_a.o [1]
CPU_TS_Init             0x000067bd    0xe  Code  Lc  cpu_core.o [1]
CPU_TS_TmrFreqSet       0x0000670b    0x6  Code  Gb  cpu_core.o [1]
CPU_TS_TmrFreq_Hz       0x20002af0    0x4  Data  Gb  cpu_core.o [1]
CPU_TS_TmrInit          0x00006879   0x18  Code  Gb  cpu_bsp.o [1]
CPU_TS_TmrRd            0x00006891    0x6  Code  Gb  cpu_bsp.o [1]
CPU_WaitForExcept       0x0000664f         Code  Gb  cpu_a.o [1]
CPU_WaitForInt          0x0000664b         Code  Gb  cpu_a.o [1]
CSTACK$$Base            0x20002b70          --   Gb  - Linker created -
CSTACK$$Limit           0x20002f70          --   Gb  - Linker created -
CardType                0x20002b67    0x1  Data  Lc  microsd.o [1]
CmdLineProcess          0x0000011d   0x6c  Code  Gb  fatfs.o [1]
Cmd_app                 0x00001261  0x11a  Code  Gb  fatfs.o [1]
Cmd_cat                 0x000011bf   0x9c  Code  Gb  fatfs.o [1]
Cmd_new                 0x0000137b   0x50  Code  Gb  fatfs.o [1]
DESELECT                0x0000146d   0x10  Code  Lc  microsd.o [1]
DummyQ                  0x2000299c   0x30  Data  Gb  app.o [1]
EthernetPHYRead         0x00007f61   0x20  Code  Gb  ethernet.o [1]
EthernetPHYWrite        0x00007f41   0x20  Code  Gb  ethernet.o [1]
FatFs                   0x20002ad0    0x8  Data  Lc  fatfs.o [1]
GPIODirModeSet          0x00001d71   0x46  Code  Gb  gpio.o [1]
GPIOIntTypeSet          0x00001db7   0x5a  Code  Gb  gpio.o [1]
GPIOPadConfigSet        0x00001e11  0x10e  Code  Gb  gpio.o [1]
GPIOPinConfigure        0x0000201b   0x46  Code  Gb  gpio.o [1]
GPIOPinIntClear         0x00001f57    0x8  Code  Gb  gpio.o [1]
GPIOPinIntDisable       0x00001f31   0x12  Code  Gb  gpio.o [1]
GPIOPinIntEnable        0x00001f1f   0x12  Code  Gb  gpio.o [1]
GPIOPinIntStatus        0x00001f43   0x14  Code  Gb  gpio.o [1]
GPIOPinRead             0x00001f5f    0x8  Code  Gb  gpio.o [1]
GPIOPinTypeGPIOInput    0x00001f71   0x22  Code  Gb  gpio.o [1]
GPIOPinTypeGPIOOutput   0x00001f93   0x22  Code  Gb  gpio.o [1]
GPIOPinTypeI2C          0x00001fb5   0x22  Code  Gb  gpio.o [1]
GPIOPinTypePWM          0x00001fd7   0x22  Code  Gb  gpio.o [1]
GPIOPinTypeSSI          0x00001ff9   0x22  Code  Gb  gpio.o [1]
GPIOPinWrite            0x00001f67    0xa  Code  Gb  gpio.o [1]
GetTagValue             0x00001187   0x38  Code  Gb  fatfs.o [1]
HEAP$$Base              0x20002b70          --   Gb  - Linker created -
HEAP$$Limit             0x20002b70          --   Gb  - Linker created -
I2CMasterControl        0x00007565    0x4  Code  Gb  i2c.o [1]
I2CMasterDataPut        0x00007587    0x6  Code  Gb  i2c.o [1]
I2CMasterEnable         0x0000751f    0xa  Code  Gb  i2c.o [1]
I2CMasterErr            0x00007569   0x1e  Code  Gb  i2c.o [1]
I2CMasterInitExpClk     0x000074e1   0x3e  Code  Gb  i2c.o [1]
I2CMasterIntStatus      0x00007529   0x26  Code  Gb  i2c.o [1]
I2CMasterSlaveAddrSet   0x00007559    0xc  Code  Gb  i2c.o [1]
InStream_Read           0x0000815d   0x22  Code  Lc  packbits_init.o [5]
InitStartResource       0x20002ab4   0x10  Data  Gb  os_var.o [1]
IntWheelSensor          0x00007cc5   0xd2  Code  Gb  app.o [1]
Left_tgt                0x20002b60    0x1  Data  Gb  app.o [1]
Mem_Clr                 0x000068fd    0xc  Code  Gb  lib_mem.o [1]
Mem_Set                 0x00006909   0x5a  Code  Gb  lib_mem.o [1]
MutexOne                0x200029cc   0x2c  Data  Gb  app.o [1]
MutexThree              0x20002a24   0x2c  Data  Gb  app.o [1]
MutexTwo                0x200029f8   0x2c  Data  Gb  app.o [1]
OSCfg_DataSizeRAM       0x000086dc    0x4  Data  Gb  os_cfg_app.o [1]
OSCfg_ISRStk            0x20001c2c  0x200  Data  Gb  os_cfg_app.o [1]
OSCfg_ISRStkBasePtr     0x000086ac    0x4  Data  Gb  os_cfg_app.o [1]
OSCfg_ISRStkSize        0x000086b0    0x4  Data  Gb  os_cfg_app.o [1]
OSCfg_ISRStkSizeRAM     0x000086b4    0x4  Data  Gb  os_cfg_app.o [1]
OSCfg_IdleTaskStk       0x20001a2c  0x200  Data  Gb  os_cfg_app.o [1]
OSCfg_IdleTaskStkBasePtr
                        0x0000869c    0x4  Data  Gb  os_cfg_app.o [1]
OSCfg_IdleTaskStkLimit  0x000086a0    0x4  Data  Gb  os_cfg_app.o [1]
OSCfg_IdleTaskStkSize   0x000086a4    0x4  Data  Gb  os_cfg_app.o [1]
OSCfg_IdleTaskStkSizeRAM
                        0x000086a8    0x4  Data  Gb  os_cfg_app.o [1]
OSCfg_Init              0x00006589   0xa0  Code  Gb  os_cfg_app.o [1]
OSCfg_MsgPool           0x2000019c  0x640  Data  Gb  os_cfg_app.o [1]
OSCfg_MsgPoolBasePtr    0x000086bc    0x4  Data  Gb  os_cfg_app.o [1]
OSCfg_MsgPoolSize       0x00001cda    0x2  Data  Gb  os_cfg_app.o [1]
OSCfg_MsgPoolSizeRAM    0x000086b8    0x4  Data  Gb  os_cfg_app.o [1]
OSCfg_StkSizeMin        0x000086c0    0x4  Data  Gb  os_cfg_app.o [1]
OSCfg_TickRate_Hz       0x000086c4    0x4  Data  Gb  os_cfg_app.o [1]
OSCfg_TickTaskPrio      0x000086f0    0x1  Data  Gb  os_cfg_app.o [1]
OSCfg_TickTaskStk       0x20001e2c  0x200  Data  Gb  os_cfg_app.o [1]
OSCfg_TickTaskStkBasePtr
                        0x000086c8    0x4  Data  Gb  os_cfg_app.o [1]
OSCfg_TickTaskStkLimit  0x000086cc    0x4  Data  Gb  os_cfg_app.o [1]
OSCfg_TickTaskStkSize   0x000086d0    0x4  Data  Gb  os_cfg_app.o [1]
OSCfg_TickTaskStkSizeRAM
                        0x000086d4    0x4  Data  Gb  os_cfg_app.o [1]
OSCfg_TickWheel         0x200028f4   0x68  Data  Gb  os_cfg_app.o [1]
OSCfg_TickWheelSize     0x00002602    0x2  Data  Gb  os_cfg_app.o [1]
OSCfg_TickWheelSizeRAM  0x000086d8    0x4  Data  Gb  os_cfg_app.o [1]
OSDbg_AppHooksEn        0x000086f2    0x1  Data  Gb  os_dbg.o [1]
OSDbg_ArgChkEn          0x000086f1    0x1  Data  Gb  os_dbg.o [1]
OSDbg_CalledFromISRChkEn
                        0x000086f3    0x1  Data  Gb  os_dbg.o [1]
OSDbg_DataSize          0x000086e8    0x4  Data  Gb  os_dbg.o [1]
OSDbg_DbgEn             0x0000267a    0x2  Data  Gb  os_dbg.o [1]
OSDbg_EndiannessTest    0x000086e0    0x4  Data  Gb  os_dbg.o [1]
OSDbg_FlagDelEn         0x000086f5    0x1  Data  Gb  os_dbg.o [1]
OSDbg_FlagEn            0x000086f4    0x1  Data  Gb  os_dbg.o [1]
OSDbg_FlagGrp           0x000083d0   0x28  Data  Gb  os_dbg.o [1]
OSDbg_FlagGrpSize       0x0000380a    0x2  Data  Gb  os_dbg.o [1]
OSDbg_FlagModeClrEn     0x000086f6    0x1  Data  Gb  os_dbg.o [1]
OSDbg_FlagPendAbortEn   0x000086f7    0x1  Data  Gb  os_dbg.o [1]
OSDbg_FlagWidth         0x00003822    0x2  Data  Gb  os_dbg.o [1]
OSDbg_ISRPostDeferredEn
                        0x000086f8    0x1  Data  Gb  os_dbg.o [1]
OSDbg_Mem               0x000084b8   0x20  Data  Gb  os_dbg.o [1]
OSDbg_MemEn             0x000086f9    0x1  Data  Gb  os_dbg.o [1]
OSDbg_MsgEn             0x000086fa    0x1  Data  Gb  os_dbg.o [1]
OSDbg_MsgPoolSize       0x00003952    0x2  Data  Gb  os_dbg.o [1]
OSDbg_MsgQSize          0x00003ac2    0x2  Data  Gb  os_dbg.o [1]
OSDbg_MsgSize           0x00003886    0x2  Data  Gb  os_dbg.o [1]
OSDbg_Mutex             0x000083a4   0x2c  Data  Gb  os_dbg.o [1]
OSDbg_MutexDelEn        0x000086fc    0x1  Data  Gb  os_dbg.o [1]
OSDbg_MutexEn           0x000086fb    0x1  Data  Gb  os_dbg.o [1]
OSDbg_MutexPendAbortEn  0x000086fd    0x1  Data  Gb  os_dbg.o [1]
OSDbg_MutexSize         0x00003cd6    0x2  Data  Gb  os_dbg.o [1]
OSDbg_ObjTypeChkEn      0x000086fe    0x1  Data  Gb  os_dbg.o [1]
OSDbg_PendDataSize      0x00003d06    0x2  Data  Gb  os_dbg.o [1]
OSDbg_PendListSize      0x00004262    0x2  Data  Gb  os_dbg.o [1]
OSDbg_PendMultiEn       0x000086ff    0x1  Data  Gb  os_dbg.o [1]
OSDbg_PendObjSize       0x000042de    0x2  Data  Gb  os_dbg.o [1]
OSDbg_PrioMax           0x00004382    0x2  Data  Gb  os_dbg.o [1]
OSDbg_PrioTblSize       0x0000445a    0x2  Data  Gb  os_dbg.o [1]
OSDbg_PtrSize           0x00006652    0x2  Data  Gb  os_dbg.o [1]
OSDbg_Q                 0x00008374   0x30  Data  Gb  os_dbg.o [1]
OSDbg_QDelEn            0x00008701    0x1  Data  Gb  os_dbg.o [1]
OSDbg_QEn               0x00008700    0x1  Data  Gb  os_dbg.o [1]
OSDbg_QFlushEn          0x00008702    0x1  Data  Gb  os_dbg.o [1]
OSDbg_QPendAbortEn      0x00008703    0x1  Data  Gb  os_dbg.o [1]
OSDbg_QSize             0x00006962    0x2  Data  Gb  os_dbg.o [1]
OSDbg_RdyList           0x00008236    0x2  Data  Gb  os_dbg.o [1]
OSDbg_RdyListSize       0x000086e4    0x4  Data  Gb  os_dbg.o [1]
OSDbg_SchedRoundRobinEn
                        0x00008704    0x1  Data  Gb  os_dbg.o [1]
OSDbg_Sem               0x000083f8   0x28  Data  Gb  os_dbg.o [1]
OSDbg_SemDelEn          0x00008706    0x1  Data  Gb  os_dbg.o [1]
OSDbg_SemEn             0x00008705    0x1  Data  Gb  os_dbg.o [1]
OSDbg_SemPendAbortEn    0x00008707    0x1  Data  Gb  os_dbg.o [1]
OSDbg_SemSetEn          0x00008708    0x1  Data  Gb  os_dbg.o [1]
OSDbg_SemSize           0x00006c62    0x2  Data  Gb  os_dbg.o [1]
OSDbg_StatTaskEn        0x0000870a    0x1  Data  Gb  os_dbg.o [1]
OSDbg_StatTaskStkChkEn  0x0000870b    0x1  Data  Gb  os_dbg.o [1]
OSDbg_StkWidth          0x00008709    0x1  Data  Gb  os_dbg.o [1]
OSDbg_TCBSize           0x00008522    0x2  Data  Gb  os_dbg.o [1]
OSDbg_TaskChangePrioEn  0x0000870c    0x1  Data  Gb  os_dbg.o [1]
OSDbg_TaskDelEn         0x0000870d    0x1  Data  Gb  os_dbg.o [1]
OSDbg_TaskProfileEn     0x00008710    0x1  Data  Gb  os_dbg.o [1]
OSDbg_TaskQEn           0x0000870e    0x1  Data  Gb  os_dbg.o [1]
OSDbg_TaskQPendAbortEn  0x0000870f    0x1  Data  Gb  os_dbg.o [1]
OSDbg_TaskRegTblSize    0x00008516    0x2  Data  Gb  os_dbg.o [1]
OSDbg_TaskSemPendAbortEn
                        0x00008711    0x1  Data  Gb  os_dbg.o [1]
OSDbg_TaskSuspendEn     0x00008712    0x1  Data  Gb  os_dbg.o [1]
OSDbg_TickSpokeSize     0x000086ec    0x2  Data  Gb  os_dbg.o [1]
OSDbg_TimeDlyHMSMEn     0x00008713    0x1  Data  Gb  os_dbg.o [1]
OSDbg_TimeDlyResumeEn   0x00008714    0x1  Data  Gb  os_dbg.o [1]
OSDbg_Tmr               0x00008340   0x34  Data  Gb  os_dbg.o [1]
OSDbg_TmrEn             0x00008715    0x1  Data  Gb  os_dbg.o [1]
OSDbg_VersionNbr        0x000086ee    0x2  Data  Gb  os_dbg.o [1]
OSFlagDbgListPtr        0x20002b14    0x4  Data  Gb  os_var.o [1]
OSFlagQty               0x20002b56    0x2  Data  Gb  os_var.o [1]
OSIdleTaskCtr           0x20002b10    0x4  Data  Gb  os_var.o [1]
OSIdleTaskHook          0x00004ead    0x2  Code  Gb  os_cpu_c.o [1]
OSIdleTaskTCB           0x20002774   0xc0  Data  Gb  os_var.o [1]
OSInit                  0x0000445d   0xf0  Code  Gb  os_core.o [1]
OSInitHook              0x00004eaf   0x14  Code  Gb  os_cpu_c.o [1]
OSIntEnter              0x0000454d   0x24  Code  Gb  os_core.o [1]
OSIntExit               0x00004571  0x126  Code  Gb  os_core.o [1]
OSIntNestingCtr         0x20002b69    0x1  Data  Gb  os_var.o [1]
OSMsgPool               0x20002ad8    0x8  Data  Gb  os_var.o [1]
OSMutexCreate           0x00005d7d   0x76  Code  Gb  os_mutex.o [1]
OSMutexDbgListPtr       0x20002b18    0x4  Data  Gb  os_var.o [1]
OSMutexPend             0x00005df3  0x18c  Code  Gb  os_mutex.o [1]
OSMutexPost             0x00005f7f   0xe8  Code  Gb  os_mutex.o [1]
OSMutexQty              0x20002b58    0x2  Data  Gb  os_var.o [1]
OSPrioCur               0x20002b6b    0x1  Data  Gb  os_var.o [1]
OSPrioHighRdy           0x20002b6c    0x1  Data  Gb  os_var.o [1]
OSPrioTbl               0x20002b0c    0x4  Data  Gb  os_prio.o [1]
OSQCreate               0x000060bd   0x82  Code  Gb  os_q.o [1]
OSQDbgListPtr           0x20002b1c    0x4  Data  Gb  os_var.o [1]
OSQPend                 0x0000613f  0x1c6  Code  Gb  os_q.o [1]
OSQQty                  0x20002b5a    0x2  Data  Gb  os_var.o [1]
OSRdyList               0x20002144   0xf0  Data  Gb  os_var.o [1]
OSRunning               0x20002b6a    0x1  Data  Gb  os_var.o [1]
OSSRPCreate             0x00007f3d    0x4  Code  Gb  app.o [1]
OSSched                 0x00004697   0xea  Code  Gb  os_core.o [1]
OSSchedLockNestingCtr   0x20002b6d    0x1  Data  Gb  os_var.o [1]
OSSchedLockTimeBegin    0x20002b20    0x4  Data  Gb  os_var.o [1]
OSSchedLockTimeMax      0x20002b24    0x4  Data  Gb  os_var.o [1]
OSSchedLockTimeMaxCur   0x20002b28    0x4  Data  Gb  os_var.o [1]
OSSchedRoundRobinDfltTimeQuanta
                        0x20002b2c    0x4  Data  Gb  os_var.o [1]
OSSchedRoundRobinEn     0x20002b6e    0x1  Data  Gb  os_var.o [1]
OSSemDbgListPtr         0x20002b30    0x4  Data  Gb  os_var.o [1]
OSSemQty                0x20002b5c    0x2  Data  Gb  os_var.o [1]
OSSrpList               0x20002ac4    0xc  Data  Gb  os_var.o [1]
OSStart                 0x00004781   0x64  Code  Gb  os_core.o [1]
OSStartHighRdy          0x00006655         Code  Gb  os_cpu_a.o [1]
OSTCBCurPtr             0x20002b44    0x4  Data  Gb  os_var.o [1]
OSTCBHighRdyPtr         0x20002b48    0x4  Data  Gb  os_var.o [1]
OSTaskCreate            0x000050dd  0x18a  Code  Gb  os_task.o [1]
OSTaskCreateHook        0x00004ec3    0x2  Code  Gb  os_cpu_c.o [1]
OSTaskCtxSwCtr          0x20002b34    0x4  Data  Gb  os_var.o [1]
OSTaskDbgListPtr        0x20002b38    0x4  Data  Gb  os_var.o [1]
OSTaskDel               0x00005267  0x104  Code  Gb  os_task.o [1]
OSTaskDelHook           0x00004ec5    0x2  Code  Gb  os_cpu_c.o [1]
OSTaskQty               0x20002b5e    0x2  Data  Gb  os_var.o [1]
OSTaskReturnHook        0x00004ec7    0x2  Code  Gb  os_cpu_c.o [1]
OSTaskSemPend           0x0000536b  0x1ce  Code  Gb  os_task.o [1]
OSTaskSemPost           0x00005539   0x1c  Code  Gb  os_task.o [1]
OSTaskStkInit           0x00004ec9   0x80  Code  Gb  os_cpu_c.o [1]
OSTaskSwHook            0x00004f49   0x82  Code  Gb  os_cpu_c.o [1]
OSTickCtr               0x20002b3c    0x4  Data  Gb  os_var.o [1]
OSTickTaskTCB           0x20002834   0xc0  Data  Gb  os_var.o [1]
OSTickTaskTimeMax       0x20002b40    0x4  Data  Gb  os_var.o [1]
OSTimeGet               0x000068a1   0x26  Code  Gb  os_time.o [1]
OSTimeTick              0x000068c7   0x26  Code  Gb  os_time.o [1]
OSTimeTickHook          0x00004fcb    0x2  Code  Gb  os_cpu_c.o [1]
OS_CPU_ExceptStkBase    0x20002b08    0x4  Data  Gb  os_cpu_c.o [1]
OS_CPU_PendSVHandler    0x00006673         Code  Gb  os_cpu_a.o [1]
OS_CPU_SysTickHandler   0x00004fcd   0x2c  Code  Gb  os_cpu_c.o [1]
OS_CPU_SysTickInit      0x00004ff9   0x2c  Code  Gb  os_cpu_c.o [1]
OS_Dbg_Init             0x00006379  0x210  Code  Gb  os_dbg.o [1]
OS_FlagInit             0x00005c05   0x12  Code  Gb  os_flag.o [1]
OS_IdleTask             0x000047e5   0x2c  Code  Gb  os_core.o [1]
OS_IdleTaskInit         0x00004811   0x54  Code  Gb  os_core.o [1]
OS_MsgPoolCreate        0x00005c21   0x3c  Code  Gb  os_msg.o [1]
OS_MsgPoolInit          0x00005c5d   0x4c  Code  Gb  os_msg.o [1]
OS_MsgQFreeAll          0x00005ca9   0x44  Code  Gb  os_msg.o [1]
OS_MsgQGet              0x00005d01   0x70  Code  Gb  os_msg.o [1]
OS_MsgQInit             0x00005ced   0x14  Code  Gb  os_msg.o [1]
OS_MutexDbgListAdd      0x00006067   0x28  Code  Gb  os_mutex.o [1]
OS_MutexInit            0x0000608f   0x12  Code  Gb  os_mutex.o [1]
OS_Pend                 0x00004865   0x6c  Code  Gb  os_core.o [1]
OS_PendDataInit         0x000048d1   0x34  Code  Gb  os_core.o [1]
OS_PendDbgNameAdd       0x00004905   0x42  Code  Gb  os_core.o [1]
OS_PendDbgNameRemove    0x00004947   0x1e  Code  Gb  os_core.o [1]
OS_PendListInit         0x00004965    0xe  Code  Gb  os_core.o [1]
OS_PendListInsertPrio   0x00004973   0x6e  Code  Gb  os_core.o [1]
OS_PendListRemove       0x000049e1   0x28  Code  Gb  os_core.o [1]
OS_PendListRemove1      0x00004a09   0x48  Code  Gb  os_core.o [1]
OS_Post                 0x00004a51   0xc0  Code  Gb  os_core.o [1]
OS_Post1                0x00004b11   0x26  Code  Gb  os_core.o [1]
OS_PrioGetHighest       0x00005069   0x20  Code  Gb  os_prio.o [1]
OS_PrioInit             0x00005055   0x14  Code  Gb  os_prio.o [1]
OS_PrioInsert           0x00005089   0x26  Code  Gb  os_prio.o [1]
OS_PrioRemove           0x000050af   0x28  Code  Gb  os_prio.o [1]
OS_QDbgListAdd          0x00006305   0x28  Code  Gb  os_q.o [1]
OS_QInit                0x0000632d   0x12  Code  Gb  os_q.o [1]
OS_RdyListInit          0x00004b37   0x24  Code  Gb  os_core.o [1]
OS_RdyListInsert        0x00004b83   0x28  Code  Gb  os_core.o [1]
OS_RdyListInsertHead    0x00004bab   0x3a  Code  Gb  os_core.o [1]
OS_RdyListInsertTail    0x00004c19   0x38  Code  Gb  os_core.o [1]
OS_RdyListMoveHeadToTail
                        0x00004c75   0x40  Code  Gb  os_core.o [1]
OS_RdyListRemove        0x00004cb5   0x5c  Code  Gb  os_core.o [1]
OS_SchedRoundRobin      0x00004d79   0xa6  Code  Gb  os_core.o [1]
OS_SemInit              0x0000635d   0x12  Code  Gb  os_sem.o [1]
OS_SrpListInit          0x00004b61   0x10  Code  Gb  os_core.o [1]
OS_SrpListInsertHead    0x00004be5   0x30  Code  Gb  os_core.o [1]
OS_SrpListRemoveHead    0x00004d11   0x4a  Code  Gb  os_core.o [1]
OS_SrpResourceListInit  0x00004b71   0x12  Code  Gb  os_core.o [1]
OS_TaskBlock            0x00004e59   0x3a  Code  Gb  os_core.o [1]
OS_TaskDbgListAdd       0x00005555   0x2e  Code  Gb  os_task.o [1]
OS_TaskDbgListRemove    0x00005583   0x4a  Code  Gb  os_task.o [1]
OS_TaskInit             0x000055cd   0x18  Code  Gb  os_task.o [1]
OS_TaskInitTCB          0x000055e5  0x108  Code  Gb  os_task.o [1]
OS_TaskRdy              0x00004e93   0x1a  Code  Gb  os_core.o [1]
OS_TaskReturn           0x000056f9   0x14  Code  Gb  os_task.o [1]
OS_TaskSemPost          0x00005715   0xd4  Code  Gb  os_task.o [1]
OS_TickListInit         0x000058ad   0x2a  Code  Gb  os_tick.o [1]
OS_TickListInsert       0x000058d7  0x11c  Code  Gb  os_tick.o [1]
OS_TickListRemove       0x000059f3   0x42  Code  Gb  os_tick.o [1]
OS_TickListUpdate       0x00005a35  0x198  Code  Gb  os_tick.o [1]
OS_TickTask             0x0000580d   0x28  Code  Gb  os_tick.o [1]
OS_TickTaskInit         0x00005835   0x78  Code  Gb  os_tick.o [1]
PWMGenConfigure         0x0000758d   0x28  Code  Gb  pwm.o [1]
PWMGenEnable            0x000075c9    0xa  Code  Gb  pwm.o [1]
PWMGenPeriodSet         0x000075b5   0x14  Code  Gb  pwm.o [1]
PWMOutputInvert         0x0000760f   0x16  Code  Gb  pwm.o [1]
PWMOutputState          0x000075f9   0x16  Code  Gb  pwm.o [1]
PWMPulseWidthSet        0x000075d3   0x26  Code  Gb  pwm.o [1]
PowerFlag               0x20002b68    0x1  Data  Lc  microsd.o [1]
Region$$Table$$Base     0x0000846c          --   Gb  - Linker created -
Region$$Table$$Limit    0x00008498          --   Gb  - Linker created -
Resource1               0x20002a74   0x10  Data  Gb  app.o [1]
Resource2               0x20002a84   0x10  Data  Gb  app.o [1]
Resource3               0x20002a94   0x10  Data  Gb  app.o [1]
Right_tgt               0x20002b61    0x1  Data  Gb  app.o [1]
RoboTurn                0x00007db3   0xc6  Code  Gb  app.o [1]
SELECT                  0x00001451   0x1c  Code  Lc  microsd.o [1]
SSIConfigSetExpClk      0x0000206d   0x76  Code  Gb  ssi.o [1]
SSIDataGet              0x00002101    0xc  Code  Gb  ssi.o [1]
SSIDataPut              0x000020f7    0xa  Code  Gb  ssi.o [1]
SSIDisable              0x000020ed    0xa  Code  Gb  ssi.o [1]
SSIEnable               0x000020e3    0xa  Code  Gb  ssi.o [1]
Stat                    0x20000198    0x1  Data  Lc  microsd.o [1]
SysCtlClockGet          0x00002323  0x200  Code  Gb  sysctl.o [1]
SysCtlClockSet          0x000021c1  0x162  Code  Gb  sysctl.o [1]
SysCtlDelay             0x000021b9    0x8  Code  Gb  sysctl.o [1]
SysCtlPWMClockSet       0x00002523   0x10  Code  Gb  sysctl.o [1]
SysCtlPeripheralDeepSleepDisable
                        0x00002193   0x26  Code  Gb  sysctl.o [1]
SysCtlPeripheralEnable  0x0000216d   0x26  Code  Gb  sysctl.o [1]
SysCtlPeripheralReset   0x0000210d   0x60  Code  Gb  sysctl.o [1]
Timer1                  0x20002b65    0x1  Data  Lc  microsd.o [1]
Timer2                  0x20002b66    0x1  Data  Lc  microsd.o [1]
_EncodingSb_Mbtowc      0x0000430f   0x30  Code  Gb  xencoding_sb.o [3]
_EncodingSb_Wctomb      0x000042f5   0x1a  Code  Gb  xencoding_sb.o [3]
_GenldFull              0x00003559  0x24a  Code  Lc  xprintffull.o [3]
_IsdstStr               0x2000008c    0x4  Data  Gb  setlocale.o [3]
_LdtobFull              0x000031d1  0x382  Code  Lc  xprintffull.o [3]
_LitobFull              0x00003073  0x10c  Code  Lc  xprintffull.o [3]
_LocaleEncoding         0x000042e1    0xe  Code  Gb  setlocale.o [3]
_LocaleReturnString     0x200000ac   0x50  Data  Lc  setlocale.o [3]
_Locale_Profile         0x20000090   0x1c  Data  Gb  setlocale.o [3]
_Locale_aeabi_lconv     0x20000050   0x38  Data  Gb  localeconv.o [3]
_Locale_lconv           0x20000000   0x50  Data  Gb  localeconv.o [3]
_Mbtowc                 0x000037eb   0x20  Code  Gb  xmbtowc.o [3]
_PrintfFull             0x0000267d  0x67c  Code  Gb  xprintffull.o [3]
_PutcharsFull           0x000037a3   0x2e  Code  Lc  xprintffull.o [3]
_PutstrFull             0x00002d11  0x35c  Code  Lc  xprintffull.o [3]
_SProut                 0x00001c9b    0xa  Code  Gb  xsprout.o [3]
_TzoneStr               0x20000088    0x4  Data  Gb  setlocale.o [3]
_Wctomb                 0x00003939   0x1a  Code  Gb  xwctomb.o [3]
__aeabi_cdcmple         0x00003ca9         Code  Gb  DblCmpLe.o [4]
__aeabi_cdrcmple        0x00003cd9         Code  Gb  DblCmpGe.o [4]
__aeabi_d2iz            0x00003e15         Code  Gb  DblToI32.o [4]
__aeabi_d2uiz           0x00003e41         Code  Gb  DblToI32.o [4]
__aeabi_ddiv            0x0000401d         Code  Gb  DblDiv.o [4]
__aeabi_dmul            0x00003ac5         Code  Gb  DblMul.o [4]
__aeabi_dsub            0x00003e9d         Code  Gb  DblSub.o [4]
__aeabi_i2d             0x00003e6d         Code  Gb  I32ToDbl.o [4]
__aeabi_ldiv0           0x00004381         Code  Gb  I64DivZer.o [5]
__aeabi_memset          0x0000259d         Code  Gb  ABImemset.o [5]
__aeabi_ui2d            0x00003e81         Code  Gb  I32ToDbl.o [4]
__aeabi_uldivmod        0x000039d5         Code  Gb  I64DivMod.o [5]
__cmain                 0x000084f5         Code  Gb  cmain.o [5]
__data_Aldata           0x20002ae0    0x8  Data  Gb  xxmemxmalloc.o [3]
__data_GetMemChunk      0x00004355   0x2c  Code  Gb  xgetmemchunk.o [3]
__exit                  0x00008239   0x14  Code  Gb  exit.o [6]
__iar_Dnorm             0x00003c67   0x42  Code  Gb  xdnorm.o [4]
__iar_Dscale            0x00003d09  0x10c  Code  Gb  xdscale.o [4]
__iar_Locale_lconv_init
                        0x00004265   0x3a  Code  Gb  localeconv.o [3]
__iar_Mbcurmax          0x0000387d    0xa  Code  Gb  xmbcurmax.o [3]
__iar_Memchr            0x00003825         Code  Gb  memchr.o [5]
__iar_Memset            0x0000259d         Code  Gb  ABImemset.o [5]
__iar_Memset_word       0x000025a5         Code  Gb  ABImemset.o [5]
__iar_Strchr            0x0000380d         Code  Gb  strchr.o [5]
__iar_d2uiz             0x00003e4d         Code  Gb  DblToI32.o [4]
__iar_dadd              0x00004385         Code  Gb  DblAdd.o [4]
__iar_data_init3        0x00008421   0x28  Code  Gb  data_init.o [5]
__iar_dlib_perthread_access
                        0x00004459    0x2  Code  Gb  xtls.o [3]
__iar_dsub              0x00003eb1         Code  Gb  DblSub.o [4]
__iar_dsubStart         0x00003ec3         Code  Gb  DblSub.o [4]
__iar_packbits_init3    0x0000817f   0xb2  Code  Gb  packbits_init.o [5]
__iar_program_start     0x00008645         Code  Gb  cstartup_M.o [5]
__iar_strcmp            0x000013ed         Code  Gb  strcmp_unaligned.o [5]
__iar_ui2d              0x00003e85         Code  Gb  I32ToDbl.o [4]
__iar_unaligned___aeabi_memcpy
                        0x00002605         Code  Gb  ABImemcpy_unaligned.o [5]
__iar_unaligned___aeabi_memcpy4
                        0x00002625         Code  Gb  ABImemcpy_unaligned.o [5]
__iar_unaligned___aeabi_memcpy8
                        0x00002625         Code  Gb  ABImemcpy_unaligned.o [5]
__iar_unaligned_memcmp  0x00001c2d         Code  Gb  memcmp_unaligned.o [5]
__iar_unaligned_strcmp  0x000013ed         Code  Gb  strcmp_unaligned.o [5]
__iar_unaligned_strcpy  0x00001cdd         Code  Gb  strcpy_unaligned.o [5]
__iar_zero_init3        0x0000142f   0x22  Code  Gb  zero_init3.o [5]
__low_level_init        0x0000850f    0x4  Code  Gb  low_level_init.o [3]
__vector_table          0x00000000  0x11c  Data  Gb  app_vect.o [1]
_call_main              0x00008501         Code  Gb  cmain.o [5]
_exit                   0x00008519         Code  Gb  cexit.o [5]
_main                   0x0000850b         Code  Gb  cmain.o [5]
abort                   0x00008231    0x6  Code  Gb  abort.o [3]
auto_mount              0x000008ef  0x18a  Code  Lc  fatfs.o [1]
check_fs                0x0000088f   0x60  Code  Lc  fatfs.o [1]
chk_power               0x0000162f    0x8  Code  Lc  microsd.o [1]
clust2sect              0x00000509   0x1a  Code  Lc  fatfs.o [1]
create_chain            0x00000467   0xa2  Code  Lc  fatfs.o [1]
disk_initialize         0x00001759  0x17a  Code  Gb  microsd.o [1]
disk_ioctl              0x00001a51  0x188  Code  Gb  microsd.o [1]
disk_read               0x000018e5   0xa2  Code  Gb  microsd.o [1]
disk_status             0x000018d3   0x12  Code  Gb  microsd.o [1]
disk_write              0x00001987   0xca  Code  Gb  microsd.o [1]
div                     0x000042d1    0xe  Code  Gb  div.o [3]
exit                    0x00008513    0x4  Code  Gb  exit.o [3]
f_close                 0x0000104b   0x18  Code  Gb  fatfs.o [1]
f_lseek                 0x00001063  0x124  Code  Gb  fatfs.o [1]
f_mount                 0x00000a9f   0x42  Code  Gb  fatfs.o [1]
f_open                  0x00000af5  0x176  Code  Gb  fatfs.o [1]
f_read                  0x00000c6b  0x194  Code  Gb  fatfs.o [1]
f_sync                  0x00000fc9   0x82  Code  Gb  fatfs.o [1]
f_write                 0x00000dff  0x1ca  Code  Gb  fatfs.o [1]
free                    0x00003955   0x7a  Code  Gb  xxmemxfree.o [3]
fsid                    0x20002b54    0x2  Data  Lc  fatfs.o [1]
g_cCmdBuf               0x2000016c   0x20  Data  Gb  app.o [1]
g_cCwdBuf               0x200000fc   0x40  Data  Lc  fatfs.o [1]
g_cTmpBuf               0x2000295c   0x40  Data  Lc  fatfs.o [1]
g_pucFont               0x00007f80  0x1dc  Data  Lc  bsp_display.o [1]
g_pucRITInit            0x000082a8   0x50  Data  Lc  bsp_display.o [1]
g_pucRow1               0x00008650    0x8  Data  Lc  bsp_display.o [1]
g_pucRow2               0x00008658    0x8  Data  Lc  bsp_display.o [1]
g_pulDCGCRegs           0x0000862c    0xc  Data  Lc  sysctl.o [1]
g_pulGPIOBaseAddrs      0x000082f8   0x48  Data  Lc  gpio.o [1]
g_pulRCGCRegs           0x00008620    0xc  Data  Lc  sysctl.o [1]
g_pulSRCRRegs           0x00008614    0xc  Data  Lc  sysctl.o [1]
g_pulXtals              0x0000824c   0x5c  Data  Lc  sysctl.o [1]
g_sCmdTable             0x2000013c   0x30  Data  Gb  fatfs.o [1]
g_sFatFs                0x200007dc  0x22c  Data  Lc  app.o [1]
g_sFileObject           0x20000a08  0x224  Data  Lc  fatfs.o [1]
g_ucColumnAdjust        0x20000194    0x4  Data  Lc  bsp_display.o [1]
g_ulDelay               0x20002aec    0x4  Data  Lc  bsp_display.o [1]
get_cluster             0x0000023b   0xda  Code  Lc  fatfs.o [1]
get_fattime             0x00001bd9    0x4  Code  Gb  microsd.o [1]
iCounter                0x2000018c    0x4  Data  Gb  app.o [1]
iMove                   0x20000190    0x4  Data  Gb  app.o [1]
localeconv              0x0000429f   0x16  Code  Gb  localeconv.o [3]
main                    0x00007625   0x5a  Code  Gb  app.o [1]
make_dirfile            0x00000585  0x120  Code  Lc  fatfs.o [1]
malloc                  0x00003889   0xac  Code  Gb  xxmemxmalloc.o [3]
memchr                  0x00003825         Code  Gb  memchr.o [5]
memcpy                  0x00001c8f    0xc  Code  Gb  memcpy.o [3]
memset                  0x00001c19   0x14  Code  Gb  memset.o [3]
move_window             0x00000189   0x80  Code  Lc  fatfs.o [1]
next_dir_entry          0x00000523   0x62  Code  Lc  fatfs.o [1]
power_off               0x00001625    0xa  Code  Lc  microsd.o [1]
power_on                0x00001531   0xb6  Code  Lc  microsd.o [1]
put_cluster             0x00000315  0x108  Code  Lc  fatfs.o [1]
rcvr_datablock          0x00001637   0x4e  Code  Lc  microsd.o [1]
rcvr_spi                0x00001497   0x20  Code  Lc  microsd.o [1]
rcvr_spi_m              0x000014b7    0xc  Code  Lc  microsd.o [1]
remove_chain            0x0000041d   0x4a  Code  Lc  fatfs.o [1]
reserve_direntry        0x000007b3   0xdc  Code  Lc  fatfs.o [1]
scale                   0x00003185   0x46  Code  Lc  xprintffull.o [3]
send_cmd                0x000016e3   0x76  Code  Lc  microsd.o [1]
send_initial_clock_train
                        0x000014e9   0x48  Code  Lc  microsd.o [1]
set_max_speed           0x000015e7   0x3e  Code  Lc  microsd.o [1]
sprintf                 0x00001d3d   0x34  Code  Gb  sprintf.o [3]
strcat                  0x00001d21   0x1c  Code  Gb  strcat.o [3]
strchr                  0x0000380d         Code  Gb  strchr.o [5]
strlen                  0x00001ca5         Code  Gb  strlen.o [5]
sync                    0x00000209   0x32  Code  Lc  fatfs.o [1]
trace_path              0x000006a5  0x10e  Code  Lc  fatfs.o [1]
validate                0x00000a79   0x26  Code  Lc  fatfs.o [1]
wait_ready              0x000014c3   0x26  Code  Lc  microsd.o [1]
xmit_datablock          0x00001685   0x5e  Code  Lc  microsd.o [1]
xmit_spi                0x0000147d   0x1a  Code  Lc  microsd.o [1]


[1] = C:\RTOS_Project\src\skynet\cpe484_es6153\Micrium\Software\EvalBoards\TI\LM3S9B92-EVALBOT\IAR\uCOS-III-CE4053_PG\Flash\Obj
[2] = command line
[3] = dl7M_tlf.a
[4] = m7M_tl.a
[5] = rt7M_tl.a
[6] = shb_l.a

  32 668 bytes of readonly  code memory
   1 995 bytes of readonly  data memory
  12 140 bytes of readwrite data memory

Errors: none
Warnings: none
